{
	"data": {
		"bytecode": {
			"linkReferences": {},
			"object": "6080604052348015600e575f80fd5b50610ba58061001c5f395ff3fe608060405234801561000f575f80fd5b506004361061004a575f3560e01c80631547d41e1461004e5780633148f14f1461007e578063dfe3db50146100ae578063e8b0ecde146100de575b5f80fd5b6100686004803603810190610063919061052f565b61010e565b6040516100759190610596565b60405180910390f35b610098600480360381019061009391906105af565b610224565b6040516100a5919061060e565b60405180910390f35b6100c860048036038101906100c39190610649565b610323565b6040516100d591906106c7565b60405180910390f35b6100f860048036038101906100f391906106e0565b6103bb565b6040516101059190610596565b60405180910390f35b6101166104e0565b5f600160028460405160200161012e939291906107a5565b60405160208183030381529060405290505f80600773ffffffffffffffffffffffffffffffffffffffff1683604051610167919061082c565b5f60405180830381855afa9150503d805f811461019f576040519150601f19603f3d011682016040523d82523d5f602084013e6101a4565b606091505b5091509150816101e9576040517f08c379a00000000000000000000000000000000000000000000000000000000081526004016101e09061089c565b60405180910390fd5b5f80828060200190518101906101ff91906108ce565b9150915060405180604001604052808381526020018281525095505050505050919050565b5f80602080602087878760405160200161024396959493929190610945565b60405160208183030381529060405290505f80600573ffffffffffffffffffffffffffffffffffffffff168360405161027c919061082c565b5f60405180830381855afa9150503d805f81146102b4576040519150601f19603f3d011682016040523d82523d5f602084013e6102b9565b606091505b5091509150816102fe576040517f08c379a00000000000000000000000000000000000000000000000000000000081526004016102f5906109ee565b60405180910390fd5b5f818060200190518101906103139190610a0c565b9050809450505050509392505050565b5f807f30644e72e131a029b85045b68181585d2833e84879b9709143e1f593f000000190505f6103608460028461035a9190610a64565b84610224565b90505f828061037257610371610a97565b5b82870990505f6103818261010e565b90505f61038e8a8a6103bb565b9050805f0151825f01511480156103ac575080602001518260200151145b95505050505050949350505050565b6103c36104e0565b5f835f01358460200135845f013585602001356040516020016103e99493929190610ac4565b60405160208183030381529060405290505f80600673ffffffffffffffffffffffffffffffffffffffff1683604051610422919061082c565b5f60405180830381855afa9150503d805f811461045a576040519150601f19603f3d011682016040523d82523d5f602084013e61045f565b606091505b5091509150816104a4576040517f08c379a000000000000000000000000000000000000000000000000000000000815260040161049b90610b51565b60405180910390fd5b5f80828060200190518101906104ba91906108ce565b915091506040518060400160405280838152602001828152509550505050505092915050565b60405180604001604052805f81526020015f81525090565b5f80fd5b5f819050919050565b61050e816104fc565b8114610518575f80fd5b50565b5f8135905061052981610505565b92915050565b5f60208284031215610544576105436104f8565b5b5f6105518482850161051b565b91505092915050565b610563816104fc565b82525050565b604082015f82015161057d5f85018261055a565b506020820151610590602085018261055a565b50505050565b5f6040820190506105a95f830184610569565b92915050565b5f805f606084860312156105c6576105c56104f8565b5b5f6105d38682870161051b565b93505060206105e48682870161051b565b92505060406105f58682870161051b565b9150509250925092565b610608816104fc565b82525050565b5f6020820190506106215f8301846105ff565b92915050565b5f80fd5b5f604082840312156106405761063f610627565b5b81905092915050565b5f805f8060c08587031215610661576106606104f8565b5b5f61066e8782880161062b565b945050604061067f8782880161062b565b93505060806106908782880161051b565b92505060a06106a18782880161051b565b91505092959194509250565b5f8115159050919050565b6106c1816106ad565b82525050565b5f6020820190506106da5f8301846106b8565b92915050565b5f80608083850312156106f6576106f56104f8565b5b5f6107038582860161062b565b92505060406107148582860161062b565b9150509250929050565b5f819050919050565b5f60ff82169050919050565b5f819050919050565b5f61075661075161074c8461071e565b610733565b610727565b9050919050565b6107668161073c565b82525050565b5f819050919050565b5f61078f61078a6107858461076c565b610733565b610727565b9050919050565b61079f81610775565b82525050565b5f6060820190506107b85f83018661075d565b6107c56020830185610796565b6107d260408301846105ff565b949350505050565b5f81519050919050565b5f81905092915050565b8281835e5f83830152505050565b5f610806826107da565b61081081856107e4565b93506108208185602086016107ee565b80840191505092915050565b5f61083782846107fc565b915081905092915050565b5f82825260208201905092915050565b7f7363616c654731206661696c65640000000000000000000000000000000000005f82015250565b5f610886600e83610842565b915061089182610852565b602082019050919050565b5f6020820190508181035f8301526108b38161087a565b9050919050565b5f815190506108c881610505565b92915050565b5f80604083850312156108e4576108e36104f8565b5b5f6108f1858286016108ba565b9250506020610902858286016108ba565b9150509250929050565b5f819050919050565b5f61092f61092a6109258461090c565b610733565b610727565b9050919050565b61093f81610915565b82525050565b5f60c0820190506109585f830189610936565b6109656020830188610936565b6109726040830187610936565b61097f60608301866105ff565b61098c60808301856105ff565b61099960a08301846105ff565b979650505050505050565b7f6578704d6f64206661696c6564000000000000000000000000000000000000005f82015250565b5f6109d8600d83610842565b91506109e3826109a4565b602082019050919050565b5f6020820190508181035f830152610a05816109cc565b9050919050565b5f60208284031215610a2157610a206104f8565b5b5f610a2e848285016108ba565b91505092915050565b7f4e487b71000000000000000000000000000000000000000000000000000000005f52601160045260245ffd5b5f610a6e826104fc565b9150610a79836104fc565b9250828203905081811115610a9157610a90610a37565b5b92915050565b7f4e487b71000000000000000000000000000000000000000000000000000000005f52601260045260245ffd5b5f608082019050610ad75f8301876105ff565b610ae460208301866105ff565b610af160408301856105ff565b610afe60608301846105ff565b95945050505050565b7f616464506f696e7473206661696c6564000000000000000000000000000000005f82015250565b5f610b3b601083610842565b9150610b4682610b07565b602082019050919050565b5f6020820190508181035f830152610b6881610b2f565b905091905056fea26469706673582212208874ea4121c26d2b8f35390269e9ccf59bb14e406cb4c06ad7e8b122fad80ebc64736f6c634300081a0033",
			"opcodes": "PUSH1 0x80 PUSH1 0x40 MSTORE CALLVALUE DUP1 ISZERO PUSH1 0xE JUMPI PUSH0 DUP1 REVERT JUMPDEST POP PUSH2 0xBA5 DUP1 PUSH2 0x1C PUSH0 CODECOPY PUSH0 RETURN INVALID PUSH1 0x80 PUSH1 0x40 MSTORE CALLVALUE DUP1 ISZERO PUSH2 0xF JUMPI PUSH0 DUP1 REVERT JUMPDEST POP PUSH1 0x4 CALLDATASIZE LT PUSH2 0x4A JUMPI PUSH0 CALLDATALOAD PUSH1 0xE0 SHR DUP1 PUSH4 0x1547D41E EQ PUSH2 0x4E JUMPI DUP1 PUSH4 0x3148F14F EQ PUSH2 0x7E JUMPI DUP1 PUSH4 0xDFE3DB50 EQ PUSH2 0xAE JUMPI DUP1 PUSH4 0xE8B0ECDE EQ PUSH2 0xDE JUMPI JUMPDEST PUSH0 DUP1 REVERT JUMPDEST PUSH2 0x68 PUSH1 0x4 DUP1 CALLDATASIZE SUB DUP2 ADD SWAP1 PUSH2 0x63 SWAP2 SWAP1 PUSH2 0x52F JUMP JUMPDEST PUSH2 0x10E JUMP JUMPDEST PUSH1 0x40 MLOAD PUSH2 0x75 SWAP2 SWAP1 PUSH2 0x596 JUMP JUMPDEST PUSH1 0x40 MLOAD DUP1 SWAP2 SUB SWAP1 RETURN JUMPDEST PUSH2 0x98 PUSH1 0x4 DUP1 CALLDATASIZE SUB DUP2 ADD SWAP1 PUSH2 0x93 SWAP2 SWAP1 PUSH2 0x5AF JUMP JUMPDEST PUSH2 0x224 JUMP JUMPDEST PUSH1 0x40 MLOAD PUSH2 0xA5 SWAP2 SWAP1 PUSH2 0x60E JUMP JUMPDEST PUSH1 0x40 MLOAD DUP1 SWAP2 SUB SWAP1 RETURN JUMPDEST PUSH2 0xC8 PUSH1 0x4 DUP1 CALLDATASIZE SUB DUP2 ADD SWAP1 PUSH2 0xC3 SWAP2 SWAP1 PUSH2 0x649 JUMP JUMPDEST PUSH2 0x323 JUMP JUMPDEST PUSH1 0x40 MLOAD PUSH2 0xD5 SWAP2 SWAP1 PUSH2 0x6C7 JUMP JUMPDEST PUSH1 0x40 MLOAD DUP1 SWAP2 SUB SWAP1 RETURN JUMPDEST PUSH2 0xF8 PUSH1 0x4 DUP1 CALLDATASIZE SUB DUP2 ADD SWAP1 PUSH2 0xF3 SWAP2 SWAP1 PUSH2 0x6E0 JUMP JUMPDEST PUSH2 0x3BB JUMP JUMPDEST PUSH1 0x40 MLOAD PUSH2 0x105 SWAP2 SWAP1 PUSH2 0x596 JUMP JUMPDEST PUSH1 0x40 MLOAD DUP1 SWAP2 SUB SWAP1 RETURN JUMPDEST PUSH2 0x116 PUSH2 0x4E0 JUMP JUMPDEST PUSH0 PUSH1 0x1 PUSH1 0x2 DUP5 PUSH1 0x40 MLOAD PUSH1 0x20 ADD PUSH2 0x12E SWAP4 SWAP3 SWAP2 SWAP1 PUSH2 0x7A5 JUMP JUMPDEST PUSH1 0x40 MLOAD PUSH1 0x20 DUP2 DUP4 SUB SUB DUP2 MSTORE SWAP1 PUSH1 0x40 MSTORE SWAP1 POP PUSH0 DUP1 PUSH1 0x7 PUSH20 0xFFFFFFFFFFFFFFFFFFFFFFFFFFFFFFFFFFFFFFFF AND DUP4 PUSH1 0x40 MLOAD PUSH2 0x167 SWAP2 SWAP1 PUSH2 0x82C JUMP JUMPDEST PUSH0 PUSH1 0x40 MLOAD DUP1 DUP4 SUB DUP2 DUP6 GAS STATICCALL SWAP2 POP POP RETURNDATASIZE DUP1 PUSH0 DUP2 EQ PUSH2 0x19F JUMPI PUSH1 0x40 MLOAD SWAP2 POP PUSH1 0x1F NOT PUSH1 0x3F RETURNDATASIZE ADD AND DUP3 ADD PUSH1 0x40 MSTORE RETURNDATASIZE DUP3 MSTORE RETURNDATASIZE PUSH0 PUSH1 0x20 DUP5 ADD RETURNDATACOPY PUSH2 0x1A4 JUMP JUMPDEST PUSH1 0x60 SWAP2 POP JUMPDEST POP SWAP2 POP SWAP2 POP DUP2 PUSH2 0x1E9 JUMPI PUSH1 0x40 MLOAD PUSH32 0x8C379A000000000000000000000000000000000000000000000000000000000 DUP2 MSTORE PUSH1 0x4 ADD PUSH2 0x1E0 SWAP1 PUSH2 0x89C JUMP JUMPDEST PUSH1 0x40 MLOAD DUP1 SWAP2 SUB SWAP1 REVERT JUMPDEST PUSH0 DUP1 DUP3 DUP1 PUSH1 0x20 ADD SWAP1 MLOAD DUP2 ADD SWAP1 PUSH2 0x1FF SWAP2 SWAP1 PUSH2 0x8CE JUMP JUMPDEST SWAP2 POP SWAP2 POP PUSH1 0x40 MLOAD DUP1 PUSH1 0x40 ADD PUSH1 0x40 MSTORE DUP1 DUP4 DUP2 MSTORE PUSH1 0x20 ADD DUP3 DUP2 MSTORE POP SWAP6 POP POP POP POP POP POP SWAP2 SWAP1 POP JUMP JUMPDEST PUSH0 DUP1 PUSH1 0x20 DUP1 PUSH1 0x20 DUP8 DUP8 DUP8 PUSH1 0x40 MLOAD PUSH1 0x20 ADD PUSH2 0x243 SWAP7 SWAP6 SWAP5 SWAP4 SWAP3 SWAP2 SWAP1 PUSH2 0x945 JUMP JUMPDEST PUSH1 0x40 MLOAD PUSH1 0x20 DUP2 DUP4 SUB SUB DUP2 MSTORE SWAP1 PUSH1 0x40 MSTORE SWAP1 POP PUSH0 DUP1 PUSH1 0x5 PUSH20 0xFFFFFFFFFFFFFFFFFFFFFFFFFFFFFFFFFFFFFFFF AND DUP4 PUSH1 0x40 MLOAD PUSH2 0x27C SWAP2 SWAP1 PUSH2 0x82C JUMP JUMPDEST PUSH0 PUSH1 0x40 MLOAD DUP1 DUP4 SUB DUP2 DUP6 GAS STATICCALL SWAP2 POP POP RETURNDATASIZE DUP1 PUSH0 DUP2 EQ PUSH2 0x2B4 JUMPI PUSH1 0x40 MLOAD SWAP2 POP PUSH1 0x1F NOT PUSH1 0x3F RETURNDATASIZE ADD AND DUP3 ADD PUSH1 0x40 MSTORE RETURNDATASIZE DUP3 MSTORE RETURNDATASIZE PUSH0 PUSH1 0x20 DUP5 ADD RETURNDATACOPY PUSH2 0x2B9 JUMP JUMPDEST PUSH1 0x60 SWAP2 POP JUMPDEST POP SWAP2 POP SWAP2 POP DUP2 PUSH2 0x2FE JUMPI PUSH1 0x40 MLOAD PUSH32 0x8C379A000000000000000000000000000000000000000000000000000000000 DUP2 MSTORE PUSH1 0x4 ADD PUSH2 0x2F5 SWAP1 PUSH2 0x9EE JUMP JUMPDEST PUSH1 0x40 MLOAD DUP1 SWAP2 SUB SWAP1 REVERT JUMPDEST PUSH0 DUP2 DUP1 PUSH1 0x20 ADD SWAP1 MLOAD DUP2 ADD SWAP1 PUSH2 0x313 SWAP2 SWAP1 PUSH2 0xA0C JUMP JUMPDEST SWAP1 POP DUP1 SWAP5 POP POP POP POP POP SWAP4 SWAP3 POP POP POP JUMP JUMPDEST PUSH0 DUP1 PUSH32 0x30644E72E131A029B85045B68181585D2833E84879B9709143E1F593F0000001 SWAP1 POP PUSH0 PUSH2 0x360 DUP5 PUSH1 0x2 DUP5 PUSH2 0x35A SWAP2 SWAP1 PUSH2 0xA64 JUMP JUMPDEST DUP5 PUSH2 0x224 JUMP JUMPDEST SWAP1 POP PUSH0 DUP3 DUP1 PUSH2 0x372 JUMPI PUSH2 0x371 PUSH2 0xA97 JUMP JUMPDEST JUMPDEST DUP3 DUP8 MULMOD SWAP1 POP PUSH0 PUSH2 0x381 DUP3 PUSH2 0x10E JUMP JUMPDEST SWAP1 POP PUSH0 PUSH2 0x38E DUP11 DUP11 PUSH2 0x3BB JUMP JUMPDEST SWAP1 POP DUP1 PUSH0 ADD MLOAD DUP3 PUSH0 ADD MLOAD EQ DUP1 ISZERO PUSH2 0x3AC JUMPI POP DUP1 PUSH1 0x20 ADD MLOAD DUP3 PUSH1 0x20 ADD MLOAD EQ JUMPDEST SWAP6 POP POP POP POP POP POP SWAP5 SWAP4 POP POP POP POP JUMP JUMPDEST PUSH2 0x3C3 PUSH2 0x4E0 JUMP JUMPDEST PUSH0 DUP4 PUSH0 ADD CALLDATALOAD DUP5 PUSH1 0x20 ADD CALLDATALOAD DUP5 PUSH0 ADD CALLDATALOAD DUP6 PUSH1 0x20 ADD CALLDATALOAD PUSH1 0x40 MLOAD PUSH1 0x20 ADD PUSH2 0x3E9 SWAP5 SWAP4 SWAP3 SWAP2 SWAP1 PUSH2 0xAC4 JUMP JUMPDEST PUSH1 0x40 MLOAD PUSH1 0x20 DUP2 DUP4 SUB SUB DUP2 MSTORE SWAP1 PUSH1 0x40 MSTORE SWAP1 POP PUSH0 DUP1 PUSH1 0x6 PUSH20 0xFFFFFFFFFFFFFFFFFFFFFFFFFFFFFFFFFFFFFFFF AND DUP4 PUSH1 0x40 MLOAD PUSH2 0x422 SWAP2 SWAP1 PUSH2 0x82C JUMP JUMPDEST PUSH0 PUSH1 0x40 MLOAD DUP1 DUP4 SUB DUP2 DUP6 GAS STATICCALL SWAP2 POP POP RETURNDATASIZE DUP1 PUSH0 DUP2 EQ PUSH2 0x45A JUMPI PUSH1 0x40 MLOAD SWAP2 POP PUSH1 0x1F NOT PUSH1 0x3F RETURNDATASIZE ADD AND DUP3 ADD PUSH1 0x40 MSTORE RETURNDATASIZE DUP3 MSTORE RETURNDATASIZE PUSH0 PUSH1 0x20 DUP5 ADD RETURNDATACOPY PUSH2 0x45F JUMP JUMPDEST PUSH1 0x60 SWAP2 POP JUMPDEST POP SWAP2 POP SWAP2 POP DUP2 PUSH2 0x4A4 JUMPI PUSH1 0x40 MLOAD PUSH32 0x8C379A000000000000000000000000000000000000000000000000000000000 DUP2 MSTORE PUSH1 0x4 ADD PUSH2 0x49B SWAP1 PUSH2 0xB51 JUMP JUMPDEST PUSH1 0x40 MLOAD DUP1 SWAP2 SUB SWAP1 REVERT JUMPDEST PUSH0 DUP1 DUP3 DUP1 PUSH1 0x20 ADD SWAP1 MLOAD DUP2 ADD SWAP1 PUSH2 0x4BA SWAP2 SWAP1 PUSH2 0x8CE JUMP JUMPDEST SWAP2 POP SWAP2 POP PUSH1 0x40 MLOAD DUP1 PUSH1 0x40 ADD PUSH1 0x40 MSTORE DUP1 DUP4 DUP2 MSTORE PUSH1 0x20 ADD DUP3 DUP2 MSTORE POP SWAP6 POP POP POP POP POP POP SWAP3 SWAP2 POP POP JUMP JUMPDEST PUSH1 0x40 MLOAD DUP1 PUSH1 0x40 ADD PUSH1 0x40 MSTORE DUP1 PUSH0 DUP2 MSTORE PUSH1 0x20 ADD PUSH0 DUP2 MSTORE POP SWAP1 JUMP JUMPDEST PUSH0 DUP1 REVERT JUMPDEST PUSH0 DUP2 SWAP1 POP SWAP2 SWAP1 POP JUMP JUMPDEST PUSH2 0x50E DUP2 PUSH2 0x4FC JUMP JUMPDEST DUP2 EQ PUSH2 0x518 JUMPI PUSH0 DUP1 REVERT JUMPDEST POP JUMP JUMPDEST PUSH0 DUP2 CALLDATALOAD SWAP1 POP PUSH2 0x529 DUP2 PUSH2 0x505 JUMP JUMPDEST SWAP3 SWAP2 POP POP JUMP JUMPDEST PUSH0 PUSH1 0x20 DUP3 DUP5 SUB SLT ISZERO PUSH2 0x544 JUMPI PUSH2 0x543 PUSH2 0x4F8 JUMP JUMPDEST JUMPDEST PUSH0 PUSH2 0x551 DUP5 DUP3 DUP6 ADD PUSH2 0x51B JUMP JUMPDEST SWAP2 POP POP SWAP3 SWAP2 POP POP JUMP JUMPDEST PUSH2 0x563 DUP2 PUSH2 0x4FC JUMP JUMPDEST DUP3 MSTORE POP POP JUMP JUMPDEST PUSH1 0x40 DUP3 ADD PUSH0 DUP3 ADD MLOAD PUSH2 0x57D PUSH0 DUP6 ADD DUP3 PUSH2 0x55A JUMP JUMPDEST POP PUSH1 0x20 DUP3 ADD MLOAD PUSH2 0x590 PUSH1 0x20 DUP6 ADD DUP3 PUSH2 0x55A JUMP JUMPDEST POP POP POP POP JUMP JUMPDEST PUSH0 PUSH1 0x40 DUP3 ADD SWAP1 POP PUSH2 0x5A9 PUSH0 DUP4 ADD DUP5 PUSH2 0x569 JUMP JUMPDEST SWAP3 SWAP2 POP POP JUMP JUMPDEST PUSH0 DUP1 PUSH0 PUSH1 0x60 DUP5 DUP7 SUB SLT ISZERO PUSH2 0x5C6 JUMPI PUSH2 0x5C5 PUSH2 0x4F8 JUMP JUMPDEST JUMPDEST PUSH0 PUSH2 0x5D3 DUP7 DUP3 DUP8 ADD PUSH2 0x51B JUMP JUMPDEST SWAP4 POP POP PUSH1 0x20 PUSH2 0x5E4 DUP7 DUP3 DUP8 ADD PUSH2 0x51B JUMP JUMPDEST SWAP3 POP POP PUSH1 0x40 PUSH2 0x5F5 DUP7 DUP3 DUP8 ADD PUSH2 0x51B JUMP JUMPDEST SWAP2 POP POP SWAP3 POP SWAP3 POP SWAP3 JUMP JUMPDEST PUSH2 0x608 DUP2 PUSH2 0x4FC JUMP JUMPDEST DUP3 MSTORE POP POP JUMP JUMPDEST PUSH0 PUSH1 0x20 DUP3 ADD SWAP1 POP PUSH2 0x621 PUSH0 DUP4 ADD DUP5 PUSH2 0x5FF JUMP JUMPDEST SWAP3 SWAP2 POP POP JUMP JUMPDEST PUSH0 DUP1 REVERT JUMPDEST PUSH0 PUSH1 0x40 DUP3 DUP5 SUB SLT ISZERO PUSH2 0x640 JUMPI PUSH2 0x63F PUSH2 0x627 JUMP JUMPDEST JUMPDEST DUP2 SWAP1 POP SWAP3 SWAP2 POP POP JUMP JUMPDEST PUSH0 DUP1 PUSH0 DUP1 PUSH1 0xC0 DUP6 DUP8 SUB SLT ISZERO PUSH2 0x661 JUMPI PUSH2 0x660 PUSH2 0x4F8 JUMP JUMPDEST JUMPDEST PUSH0 PUSH2 0x66E DUP8 DUP3 DUP9 ADD PUSH2 0x62B JUMP JUMPDEST SWAP5 POP POP PUSH1 0x40 PUSH2 0x67F DUP8 DUP3 DUP9 ADD PUSH2 0x62B JUMP JUMPDEST SWAP4 POP POP PUSH1 0x80 PUSH2 0x690 DUP8 DUP3 DUP9 ADD PUSH2 0x51B JUMP JUMPDEST SWAP3 POP POP PUSH1 0xA0 PUSH2 0x6A1 DUP8 DUP3 DUP9 ADD PUSH2 0x51B JUMP JUMPDEST SWAP2 POP POP SWAP3 SWAP6 SWAP2 SWAP5 POP SWAP3 POP JUMP JUMPDEST PUSH0 DUP2 ISZERO ISZERO SWAP1 POP SWAP2 SWAP1 POP JUMP JUMPDEST PUSH2 0x6C1 DUP2 PUSH2 0x6AD JUMP JUMPDEST DUP3 MSTORE POP POP JUMP JUMPDEST PUSH0 PUSH1 0x20 DUP3 ADD SWAP1 POP PUSH2 0x6DA PUSH0 DUP4 ADD DUP5 PUSH2 0x6B8 JUMP JUMPDEST SWAP3 SWAP2 POP POP JUMP JUMPDEST PUSH0 DUP1 PUSH1 0x80 DUP4 DUP6 SUB SLT ISZERO PUSH2 0x6F6 JUMPI PUSH2 0x6F5 PUSH2 0x4F8 JUMP JUMPDEST JUMPDEST PUSH0 PUSH2 0x703 DUP6 DUP3 DUP7 ADD PUSH2 0x62B JUMP JUMPDEST SWAP3 POP POP PUSH1 0x40 PUSH2 0x714 DUP6 DUP3 DUP7 ADD PUSH2 0x62B JUMP JUMPDEST SWAP2 POP POP SWAP3 POP SWAP3 SWAP1 POP JUMP JUMPDEST PUSH0 DUP2 SWAP1 POP SWAP2 SWAP1 POP JUMP JUMPDEST PUSH0 PUSH1 0xFF DUP3 AND SWAP1 POP SWAP2 SWAP1 POP JUMP JUMPDEST PUSH0 DUP2 SWAP1 POP SWAP2 SWAP1 POP JUMP JUMPDEST PUSH0 PUSH2 0x756 PUSH2 0x751 PUSH2 0x74C DUP5 PUSH2 0x71E JUMP JUMPDEST PUSH2 0x733 JUMP JUMPDEST PUSH2 0x727 JUMP JUMPDEST SWAP1 POP SWAP2 SWAP1 POP JUMP JUMPDEST PUSH2 0x766 DUP2 PUSH2 0x73C JUMP JUMPDEST DUP3 MSTORE POP POP JUMP JUMPDEST PUSH0 DUP2 SWAP1 POP SWAP2 SWAP1 POP JUMP JUMPDEST PUSH0 PUSH2 0x78F PUSH2 0x78A PUSH2 0x785 DUP5 PUSH2 0x76C JUMP JUMPDEST PUSH2 0x733 JUMP JUMPDEST PUSH2 0x727 JUMP JUMPDEST SWAP1 POP SWAP2 SWAP1 POP JUMP JUMPDEST PUSH2 0x79F DUP2 PUSH2 0x775 JUMP JUMPDEST DUP3 MSTORE POP POP JUMP JUMPDEST PUSH0 PUSH1 0x60 DUP3 ADD SWAP1 POP PUSH2 0x7B8 PUSH0 DUP4 ADD DUP7 PUSH2 0x75D JUMP JUMPDEST PUSH2 0x7C5 PUSH1 0x20 DUP4 ADD DUP6 PUSH2 0x796 JUMP JUMPDEST PUSH2 0x7D2 PUSH1 0x40 DUP4 ADD DUP5 PUSH2 0x5FF JUMP JUMPDEST SWAP5 SWAP4 POP POP POP POP JUMP JUMPDEST PUSH0 DUP2 MLOAD SWAP1 POP SWAP2 SWAP1 POP JUMP JUMPDEST PUSH0 DUP2 SWAP1 POP SWAP3 SWAP2 POP POP JUMP JUMPDEST DUP3 DUP2 DUP4 MCOPY PUSH0 DUP4 DUP4 ADD MSTORE POP POP POP JUMP JUMPDEST PUSH0 PUSH2 0x806 DUP3 PUSH2 0x7DA JUMP JUMPDEST PUSH2 0x810 DUP2 DUP6 PUSH2 0x7E4 JUMP JUMPDEST SWAP4 POP PUSH2 0x820 DUP2 DUP6 PUSH1 0x20 DUP7 ADD PUSH2 0x7EE JUMP JUMPDEST DUP1 DUP5 ADD SWAP2 POP POP SWAP3 SWAP2 POP POP JUMP JUMPDEST PUSH0 PUSH2 0x837 DUP3 DUP5 PUSH2 0x7FC JUMP JUMPDEST SWAP2 POP DUP2 SWAP1 POP SWAP3 SWAP2 POP POP JUMP JUMPDEST PUSH0 DUP3 DUP3 MSTORE PUSH1 0x20 DUP3 ADD SWAP1 POP SWAP3 SWAP2 POP POP JUMP JUMPDEST PUSH32 0x7363616C654731206661696C6564000000000000000000000000000000000000 PUSH0 DUP3 ADD MSTORE POP JUMP JUMPDEST PUSH0 PUSH2 0x886 PUSH1 0xE DUP4 PUSH2 0x842 JUMP JUMPDEST SWAP2 POP PUSH2 0x891 DUP3 PUSH2 0x852 JUMP JUMPDEST PUSH1 0x20 DUP3 ADD SWAP1 POP SWAP2 SWAP1 POP JUMP JUMPDEST PUSH0 PUSH1 0x20 DUP3 ADD SWAP1 POP DUP2 DUP2 SUB PUSH0 DUP4 ADD MSTORE PUSH2 0x8B3 DUP2 PUSH2 0x87A JUMP JUMPDEST SWAP1 POP SWAP2 SWAP1 POP JUMP JUMPDEST PUSH0 DUP2 MLOAD SWAP1 POP PUSH2 0x8C8 DUP2 PUSH2 0x505 JUMP JUMPDEST SWAP3 SWAP2 POP POP JUMP JUMPDEST PUSH0 DUP1 PUSH1 0x40 DUP4 DUP6 SUB SLT ISZERO PUSH2 0x8E4 JUMPI PUSH2 0x8E3 PUSH2 0x4F8 JUMP JUMPDEST JUMPDEST PUSH0 PUSH2 0x8F1 DUP6 DUP3 DUP7 ADD PUSH2 0x8BA JUMP JUMPDEST SWAP3 POP POP PUSH1 0x20 PUSH2 0x902 DUP6 DUP3 DUP7 ADD PUSH2 0x8BA JUMP JUMPDEST SWAP2 POP POP SWAP3 POP SWAP3 SWAP1 POP JUMP JUMPDEST PUSH0 DUP2 SWAP1 POP SWAP2 SWAP1 POP JUMP JUMPDEST PUSH0 PUSH2 0x92F PUSH2 0x92A PUSH2 0x925 DUP5 PUSH2 0x90C JUMP JUMPDEST PUSH2 0x733 JUMP JUMPDEST PUSH2 0x727 JUMP JUMPDEST SWAP1 POP SWAP2 SWAP1 POP JUMP JUMPDEST PUSH2 0x93F DUP2 PUSH2 0x915 JUMP JUMPDEST DUP3 MSTORE POP POP JUMP JUMPDEST PUSH0 PUSH1 0xC0 DUP3 ADD SWAP1 POP PUSH2 0x958 PUSH0 DUP4 ADD DUP10 PUSH2 0x936 JUMP JUMPDEST PUSH2 0x965 PUSH1 0x20 DUP4 ADD DUP9 PUSH2 0x936 JUMP JUMPDEST PUSH2 0x972 PUSH1 0x40 DUP4 ADD DUP8 PUSH2 0x936 JUMP JUMPDEST PUSH2 0x97F PUSH1 0x60 DUP4 ADD DUP7 PUSH2 0x5FF JUMP JUMPDEST PUSH2 0x98C PUSH1 0x80 DUP4 ADD DUP6 PUSH2 0x5FF JUMP JUMPDEST PUSH2 0x999 PUSH1 0xA0 DUP4 ADD DUP5 PUSH2 0x5FF JUMP JUMPDEST SWAP8 SWAP7 POP POP POP POP POP POP POP JUMP JUMPDEST PUSH32 0x6578704D6F64206661696C656400000000000000000000000000000000000000 PUSH0 DUP3 ADD MSTORE POP JUMP JUMPDEST PUSH0 PUSH2 0x9D8 PUSH1 0xD DUP4 PUSH2 0x842 JUMP JUMPDEST SWAP2 POP PUSH2 0x9E3 DUP3 PUSH2 0x9A4 JUMP JUMPDEST PUSH1 0x20 DUP3 ADD SWAP1 POP SWAP2 SWAP1 POP JUMP JUMPDEST PUSH0 PUSH1 0x20 DUP3 ADD SWAP1 POP DUP2 DUP2 SUB PUSH0 DUP4 ADD MSTORE PUSH2 0xA05 DUP2 PUSH2 0x9CC JUMP JUMPDEST SWAP1 POP SWAP2 SWAP1 POP JUMP JUMPDEST PUSH0 PUSH1 0x20 DUP3 DUP5 SUB SLT ISZERO PUSH2 0xA21 JUMPI PUSH2 0xA20 PUSH2 0x4F8 JUMP JUMPDEST JUMPDEST PUSH0 PUSH2 0xA2E DUP5 DUP3 DUP6 ADD PUSH2 0x8BA JUMP JUMPDEST SWAP2 POP POP SWAP3 SWAP2 POP POP JUMP JUMPDEST PUSH32 0x4E487B7100000000000000000000000000000000000000000000000000000000 PUSH0 MSTORE PUSH1 0x11 PUSH1 0x4 MSTORE PUSH1 0x24 PUSH0 REVERT JUMPDEST PUSH0 PUSH2 0xA6E DUP3 PUSH2 0x4FC JUMP JUMPDEST SWAP2 POP PUSH2 0xA79 DUP4 PUSH2 0x4FC JUMP JUMPDEST SWAP3 POP DUP3 DUP3 SUB SWAP1 POP DUP2 DUP2 GT ISZERO PUSH2 0xA91 JUMPI PUSH2 0xA90 PUSH2 0xA37 JUMP JUMPDEST JUMPDEST SWAP3 SWAP2 POP POP JUMP JUMPDEST PUSH32 0x4E487B7100000000000000000000000000000000000000000000000000000000 PUSH0 MSTORE PUSH1 0x12 PUSH1 0x4 MSTORE PUSH1 0x24 PUSH0 REVERT JUMPDEST PUSH0 PUSH1 0x80 DUP3 ADD SWAP1 POP PUSH2 0xAD7 PUSH0 DUP4 ADD DUP8 PUSH2 0x5FF JUMP JUMPDEST PUSH2 0xAE4 PUSH1 0x20 DUP4 ADD DUP7 PUSH2 0x5FF JUMP JUMPDEST PUSH2 0xAF1 PUSH1 0x40 DUP4 ADD DUP6 PUSH2 0x5FF JUMP JUMPDEST PUSH2 0xAFE PUSH1 0x60 DUP4 ADD DUP5 PUSH2 0x5FF JUMP JUMPDEST SWAP6 SWAP5 POP POP POP POP POP JUMP JUMPDEST PUSH32 0x616464506F696E7473206661696C656400000000000000000000000000000000 PUSH0 DUP3 ADD MSTORE POP JUMP JUMPDEST PUSH0 PUSH2 0xB3B PUSH1 0x10 DUP4 PUSH2 0x842 JUMP JUMPDEST SWAP2 POP PUSH2 0xB46 DUP3 PUSH2 0xB07 JUMP JUMPDEST PUSH1 0x20 DUP3 ADD SWAP1 POP SWAP2 SWAP1 POP JUMP JUMPDEST PUSH0 PUSH1 0x20 DUP3 ADD SWAP1 POP DUP2 DUP2 SUB PUSH0 DUP4 ADD MSTORE PUSH2 0xB68 DUP2 PUSH2 0xB2F JUMP JUMPDEST SWAP1 POP SWAP2 SWAP1 POP JUMP INVALID LOG2 PUSH5 0x6970667358 0x22 SLT KECCAK256 DUP9 PUSH21 0xEA4121C26D2B8F35390269E9CCF59BB14E406CB4C0 PUSH11 0xD7E8B122FAD80EBC64736F PUSH13 0x634300081A0033000000000000 "
		},
		"gasEstimates": {
			"creation": {
				"codeDepositCost": "596200",
				"executionCost": "630",
				"totalCost": "596830"
			},
			"external": {
				"addPoints((uint256,uint256),(uint256,uint256))": "infinite",
				"modExp(uint256,uint256,uint256)": "infinite",
				"rationalAdd((uint256,uint256),(uint256,uint256),uint256,uint256)": "infinite",
				"scaleG1(uint256)": "infinite"
			}
		},
		"methodIdentifiers": {
			"addPoints((uint256,uint256),(uint256,uint256))": "e8b0ecde",
			"modExp(uint256,uint256,uint256)": "3148f14f",
			"rationalAdd((uint256,uint256),(uint256,uint256),uint256,uint256)": "dfe3db50",
			"scaleG1(uint256)": "1547d41e"
		}
	},
	"abi": [
		{
			"inputs": [
				{
					"components": [
						{
							"internalType": "uint256",
							"name": "x",
							"type": "uint256"
						},
						{
							"internalType": "uint256",
							"name": "y",
							"type": "uint256"
						}
					],
					"internalType": "struct HW5.ECPoint",
					"name": "A",
					"type": "tuple"
				},
				{
					"components": [
						{
							"internalType": "uint256",
							"name": "x",
							"type": "uint256"
						},
						{
							"internalType": "uint256",
							"name": "y",
							"type": "uint256"
						}
					],
					"internalType": "struct HW5.ECPoint",
					"name": "B",
					"type": "tuple"
				}
			],
			"name": "addPoints",
			"outputs": [
				{
					"components": [
						{
							"internalType": "uint256",
							"name": "x",
							"type": "uint256"
						},
						{
							"internalType": "uint256",
							"name": "y",
							"type": "uint256"
						}
					],
					"internalType": "struct HW5.ECPoint",
					"name": "sum",
					"type": "tuple"
				}
			],
			"stateMutability": "view",
			"type": "function"
		},
		{
			"inputs": [
				{
					"internalType": "uint256",
					"name": "base",
					"type": "uint256"
				},
				{
					"internalType": "uint256",
					"name": "exp",
					"type": "uint256"
				},
				{
					"internalType": "uint256",
					"name": "mod",
					"type": "uint256"
				}
			],
			"name": "modExp",
			"outputs": [
				{
					"internalType": "uint256",
					"name": "",
					"type": "uint256"
				}
			],
			"stateMutability": "view",
			"type": "function"
		},
		{
			"inputs": [
				{
					"components": [
						{
							"internalType": "uint256",
							"name": "x",
							"type": "uint256"
						},
						{
							"internalType": "uint256",
							"name": "y",
							"type": "uint256"
						}
					],
					"internalType": "struct HW5.ECPoint",
					"name": "A",
					"type": "tuple"
				},
				{
					"components": [
						{
							"internalType": "uint256",
							"name": "x",
							"type": "uint256"
						},
						{
							"internalType": "uint256",
							"name": "y",
							"type": "uint256"
						}
					],
					"internalType": "struct HW5.ECPoint",
					"name": "B",
					"type": "tuple"
				},
				{
					"internalType": "uint256",
					"name": "num",
					"type": "uint256"
				},
				{
					"internalType": "uint256",
					"name": "den",
					"type": "uint256"
				}
			],
			"name": "rationalAdd",
			"outputs": [
				{
					"internalType": "bool",
					"name": "verified",
					"type": "bool"
				}
			],
			"stateMutability": "view",
			"type": "function"
		},
		{
			"inputs": [
				{
					"internalType": "uint256",
					"name": "s",
					"type": "uint256"
				}
			],
			"name": "scaleG1",
			"outputs": [
				{
					"components": [
						{
							"internalType": "uint256",
							"name": "x",
							"type": "uint256"
						},
						{
							"internalType": "uint256",
							"name": "y",
							"type": "uint256"
						}
					],
					"internalType": "struct HW5.ECPoint",
					"name": "product",
					"type": "tuple"
				}
			],
			"stateMutability": "view",
			"type": "function"
		}
	]
}