{
	"data": {
		"bytecode": {
			"linkReferences": {},
			"object": "6080604052348015600e575f80fd5b506110768061001c5f395ff3fe608060405234801561000f575f80fd5b506004361061004a575f3560e01c80632da1ffb51461004e57806354086d421461007e578063e8b0ecde146100ae578063f95f9907146100de575b5f80fd5b610068600480360381019061006391906107ae565b61010e565b6040516100759190610923565b60405180910390f35b61009860048036038101906100939190610a1c565b61029a565b6040516100a59190610a87565b60405180910390f35b6100c860048036038101906100c39190610aa0565b6103b6565b6040516100d59190610a87565b60405180910390f35b6100f860048036038101906100f39190610ade565b6104db565b6040516101059190610bbc565b60405180910390f35b60605f8383905067ffffffffffffffff81111561012e5761012d610957565b5b60405190808252806020026020018201604052801561016757816020015b61015461069c565b81526020019060019003908161014c5790505b5090505f5b8581101561028c575f6101cb86868481811061018b5761018a610bd5565b5b9050604002018036038101906101a19190610c02565b8a8a8a866101af9190610c5a565b8181106101bf576101be610bd5565b5b9050602002013561029a565b90505f600190505b8781101561025e575f8189856101e99190610c5a565b6101f39190610c9b565b90505f61024189898581811061020c5761020b610bd5565b5b9050604002018036038101906102229190610c02565b8d8d8581811061023557610234610bd5565b5b9050602002013561029a565b905061024d84826103b6565b9350505080806001019150506101d3565b508083838151811061027357610272610bd5565b5b602002602001018190525050808060010191505061016c565b508091505095945050505050565b6102a261069c565b5f835f01518460200151846040516020016102bf93929190610cdd565b60405160208183030381529060405290505f80600773ffffffffffffffffffffffffffffffffffffffff16836040516102f89190610d64565b5f60405180830381855afa9150503d805f8114610330576040519150601f19603f3d011682016040523d82523d5f602084013e610335565b606091505b50915091508161037a576040517f08c379a000000000000000000000000000000000000000000000000000000000815260040161037190610dd4565b60405180910390fd5b5f80828060200190518101906103909190610e06565b915091506040518060400160405280838152602001828152509550505050505092915050565b6103be61069c565b5f835f01518460200151845f015185602001516040516020016103e49493929190610e44565b60405160208183030381529060405290505f80600673ffffffffffffffffffffffffffffffffffffffff168360405161041d9190610d64565b5f60405180830381855afa9150503d805f8114610455576040519150601f19603f3d011682016040523d82523d5f602084013e61045a565b606091505b50915091508161049f576040517f08c379a000000000000000000000000000000000000000000000000000000000815260040161049690610ed1565b60405180910390fd5b5f80828060200190518101906104b59190610e06565b915091506040518060400160405280838152602001828152509550505050505092915050565b5f85866104e89190610c5a565b888890501461052c576040517f08c379a000000000000000000000000000000000000000000000000000000000815260040161052390610f5f565b60405180910390fd5b858585905014610571576040517f08c379a000000000000000000000000000000000000000000000000000000000815260040161056890610fed565b60405180910390fd5b5f604051806040016040528060018152602001600281525090505f6105998a8a8a8a8a61010e565b90505f5b8881101561068a575f6105c9848888858181106105bd576105bc610bd5565b5b9050602002013561029a565b90508282815181106105de576105dd610bd5565b5b60200260200101515f0151815f015114158061061c575082828151811061060857610607610bd5565b5b602002602001015160200151816020015114155b1561067c578083838151811061063557610634610bd5565b5b6020026020010151836040517f9da1b20f0000000000000000000000000000000000000000000000000000000081526004016106739392919061100b565b60405180910390fd5b50808060010191505061059d565b50600192505050979650505050505050565b60405180604001604052805f81526020015f81525090565b5f604051905090565b5f80fd5b5f80fd5b5f80fd5b5f80fd5b5f80fd5b5f8083601f8401126106e6576106e56106c5565b5b8235905067ffffffffffffffff811115610703576107026106c9565b5b60208301915083602082028301111561071f5761071e6106cd565b5b9250929050565b5f819050919050565b61073881610726565b8114610742575f80fd5b50565b5f813590506107538161072f565b92915050565b5f8083601f84011261076e5761076d6106c5565b5b8235905067ffffffffffffffff81111561078b5761078a6106c9565b5b6020830191508360408202830111156107a7576107a66106cd565b5b9250929050565b5f805f805f606086880312156107c7576107c66106bd565b5b5f86013567ffffffffffffffff8111156107e4576107e36106c1565b5b6107f0888289016106d1565b9550955050602061080388828901610745565b935050604086013567ffffffffffffffff811115610824576108236106c1565b5b61083088828901610759565b92509250509295509295909350565b5f81519050919050565b5f82825260208201905092915050565b5f819050602082019050919050565b61087181610726565b82525050565b604082015f82015161088b5f850182610868565b50602082015161089e6020850182610868565b50505050565b5f6108af8383610877565b60408301905092915050565b5f602082019050919050565b5f6108d18261083f565b6108db8185610849565b93506108e683610859565b805f5b838110156109165781516108fd88826108a4565b9750610908836108bb565b9250506001810190506108e9565b5085935050505092915050565b5f6020820190508181035f83015261093b81846108c7565b905092915050565b5f80fd5b5f601f19601f8301169050919050565b7f4e487b71000000000000000000000000000000000000000000000000000000005f52604160045260245ffd5b61098d82610947565b810181811067ffffffffffffffff821117156109ac576109ab610957565b5b80604052505050565b5f6109be6106b4565b90506109ca8282610984565b919050565b5f604082840312156109e4576109e3610943565b5b6109ee60406109b5565b90505f6109fd84828501610745565b5f830152506020610a1084828501610745565b60208301525092915050565b5f8060608385031215610a3257610a316106bd565b5b5f610a3f858286016109cf565b9250506040610a5085828601610745565b9150509250929050565b604082015f820151610a6e5f850182610868565b506020820151610a816020850182610868565b50505050565b5f604082019050610a9a5f830184610a5a565b92915050565b5f8060808385031215610ab657610ab56106bd565b5b5f610ac3858286016109cf565b9250506040610ad4858286016109cf565b9150509250929050565b5f805f805f805f6080888a031215610af957610af86106bd565b5b5f88013567ffffffffffffffff811115610b1657610b156106c1565b5b610b228a828b016106d1565b97509750506020610b358a828b01610745565b955050604088013567ffffffffffffffff811115610b5657610b556106c1565b5b610b628a828b01610759565b9450945050606088013567ffffffffffffffff811115610b8557610b846106c1565b5b610b918a828b016106d1565b925092505092959891949750929550565b5f8115159050919050565b610bb681610ba2565b82525050565b5f602082019050610bcf5f830184610bad565b92915050565b7f4e487b71000000000000000000000000000000000000000000000000000000005f52603260045260245ffd5b5f60408284031215610c1757610c166106bd565b5b5f610c24848285016109cf565b91505092915050565b7f4e487b71000000000000000000000000000000000000000000000000000000005f52601160045260245ffd5b5f610c6482610726565b9150610c6f83610726565b9250828202610c7d81610726565b91508282048414831517610c9457610c93610c2d565b5b5092915050565b5f610ca582610726565b9150610cb083610726565b9250828201905080821115610cc857610cc7610c2d565b5b92915050565b610cd781610726565b82525050565b5f606082019050610cf05f830186610cce565b610cfd6020830185610cce565b610d0a6040830184610cce565b949350505050565b5f81519050919050565b5f81905092915050565b8281835e5f83830152505050565b5f610d3e82610d12565b610d488185610d1c565b9350610d58818560208601610d26565b80840191505092915050565b5f610d6f8284610d34565b915081905092915050565b5f82825260208201905092915050565b7f7363616c654731206661696c65640000000000000000000000000000000000005f82015250565b5f610dbe600e83610d7a565b9150610dc982610d8a565b602082019050919050565b5f6020820190508181035f830152610deb81610db2565b9050919050565b5f81519050610e008161072f565b92915050565b5f8060408385031215610e1c57610e1b6106bd565b5b5f610e2985828601610df2565b9250506020610e3a85828601610df2565b9150509250929050565b5f608082019050610e575f830187610cce565b610e646020830186610cce565b610e716040830185610cce565b610e7e6060830184610cce565b95945050505050565b7f616464506f696e7473206661696c6564000000000000000000000000000000005f82015250565b5f610ebb601083610d7a565b9150610ec682610e87565b602082019050919050565b5f6020820190508181035f830152610ee881610eaf565b9050919050565b7f53697a6520706172616d6574657220646f6573206e6f7420636f72726573706f5f8201527f6e6420746f206d6174726978206c656e67746800000000000000000000000000602082015250565b5f610f49603383610d7a565b9150610f5482610eef565b604082019050919050565b5f6020820190508181035f830152610f7681610f3d565b9050919050565b7f53697a6520706172616d6574657220646f6573206e6f7420636f72726573706f5f8201527f6e6420746f20766563746f72206c656e67746800000000000000000000000000602082015250565b5f610fd7603383610d7a565b9150610fe282610f7d565b604082019050919050565b5f6020820190508181035f83015261100481610fcb565b9050919050565b5f60a08201905061101e5f830186610a5a565b61102b6040830185610a5a565b6110386080830184610cce565b94935050505056fea2646970667358221220cec95723f3a8febbb49dcc6939558aec4aadb41f2f06909b53906dc1ff864b1c64736f6c634300081a0033",
			"opcodes": "PUSH1 0x80 PUSH1 0x40 MSTORE CALLVALUE DUP1 ISZERO PUSH1 0xE JUMPI PUSH0 DUP1 REVERT JUMPDEST POP PUSH2 0x1076 DUP1 PUSH2 0x1C PUSH0 CODECOPY PUSH0 RETURN INVALID PUSH1 0x80 PUSH1 0x40 MSTORE CALLVALUE DUP1 ISZERO PUSH2 0xF JUMPI PUSH0 DUP1 REVERT JUMPDEST POP PUSH1 0x4 CALLDATASIZE LT PUSH2 0x4A JUMPI PUSH0 CALLDATALOAD PUSH1 0xE0 SHR DUP1 PUSH4 0x2DA1FFB5 EQ PUSH2 0x4E JUMPI DUP1 PUSH4 0x54086D42 EQ PUSH2 0x7E JUMPI DUP1 PUSH4 0xE8B0ECDE EQ PUSH2 0xAE JUMPI DUP1 PUSH4 0xF95F9907 EQ PUSH2 0xDE JUMPI JUMPDEST PUSH0 DUP1 REVERT JUMPDEST PUSH2 0x68 PUSH1 0x4 DUP1 CALLDATASIZE SUB DUP2 ADD SWAP1 PUSH2 0x63 SWAP2 SWAP1 PUSH2 0x7AE JUMP JUMPDEST PUSH2 0x10E JUMP JUMPDEST PUSH1 0x40 MLOAD PUSH2 0x75 SWAP2 SWAP1 PUSH2 0x923 JUMP JUMPDEST PUSH1 0x40 MLOAD DUP1 SWAP2 SUB SWAP1 RETURN JUMPDEST PUSH2 0x98 PUSH1 0x4 DUP1 CALLDATASIZE SUB DUP2 ADD SWAP1 PUSH2 0x93 SWAP2 SWAP1 PUSH2 0xA1C JUMP JUMPDEST PUSH2 0x29A JUMP JUMPDEST PUSH1 0x40 MLOAD PUSH2 0xA5 SWAP2 SWAP1 PUSH2 0xA87 JUMP JUMPDEST PUSH1 0x40 MLOAD DUP1 SWAP2 SUB SWAP1 RETURN JUMPDEST PUSH2 0xC8 PUSH1 0x4 DUP1 CALLDATASIZE SUB DUP2 ADD SWAP1 PUSH2 0xC3 SWAP2 SWAP1 PUSH2 0xAA0 JUMP JUMPDEST PUSH2 0x3B6 JUMP JUMPDEST PUSH1 0x40 MLOAD PUSH2 0xD5 SWAP2 SWAP1 PUSH2 0xA87 JUMP JUMPDEST PUSH1 0x40 MLOAD DUP1 SWAP2 SUB SWAP1 RETURN JUMPDEST PUSH2 0xF8 PUSH1 0x4 DUP1 CALLDATASIZE SUB DUP2 ADD SWAP1 PUSH2 0xF3 SWAP2 SWAP1 PUSH2 0xADE JUMP JUMPDEST PUSH2 0x4DB JUMP JUMPDEST PUSH1 0x40 MLOAD PUSH2 0x105 SWAP2 SWAP1 PUSH2 0xBBC JUMP JUMPDEST PUSH1 0x40 MLOAD DUP1 SWAP2 SUB SWAP1 RETURN JUMPDEST PUSH1 0x60 PUSH0 DUP4 DUP4 SWAP1 POP PUSH8 0xFFFFFFFFFFFFFFFF DUP2 GT ISZERO PUSH2 0x12E JUMPI PUSH2 0x12D PUSH2 0x957 JUMP JUMPDEST JUMPDEST PUSH1 0x40 MLOAD SWAP1 DUP1 DUP3 MSTORE DUP1 PUSH1 0x20 MUL PUSH1 0x20 ADD DUP3 ADD PUSH1 0x40 MSTORE DUP1 ISZERO PUSH2 0x167 JUMPI DUP2 PUSH1 0x20 ADD JUMPDEST PUSH2 0x154 PUSH2 0x69C JUMP JUMPDEST DUP2 MSTORE PUSH1 0x20 ADD SWAP1 PUSH1 0x1 SWAP1 SUB SWAP1 DUP2 PUSH2 0x14C JUMPI SWAP1 POP JUMPDEST POP SWAP1 POP PUSH0 JUMPDEST DUP6 DUP2 LT ISZERO PUSH2 0x28C JUMPI PUSH0 PUSH2 0x1CB DUP7 DUP7 DUP5 DUP2 DUP2 LT PUSH2 0x18B JUMPI PUSH2 0x18A PUSH2 0xBD5 JUMP JUMPDEST JUMPDEST SWAP1 POP PUSH1 0x40 MUL ADD DUP1 CALLDATASIZE SUB DUP2 ADD SWAP1 PUSH2 0x1A1 SWAP2 SWAP1 PUSH2 0xC02 JUMP JUMPDEST DUP11 DUP11 DUP11 DUP7 PUSH2 0x1AF SWAP2 SWAP1 PUSH2 0xC5A JUMP JUMPDEST DUP2 DUP2 LT PUSH2 0x1BF JUMPI PUSH2 0x1BE PUSH2 0xBD5 JUMP JUMPDEST JUMPDEST SWAP1 POP PUSH1 0x20 MUL ADD CALLDATALOAD PUSH2 0x29A JUMP JUMPDEST SWAP1 POP PUSH0 PUSH1 0x1 SWAP1 POP JUMPDEST DUP8 DUP2 LT ISZERO PUSH2 0x25E JUMPI PUSH0 DUP2 DUP10 DUP6 PUSH2 0x1E9 SWAP2 SWAP1 PUSH2 0xC5A JUMP JUMPDEST PUSH2 0x1F3 SWAP2 SWAP1 PUSH2 0xC9B JUMP JUMPDEST SWAP1 POP PUSH0 PUSH2 0x241 DUP10 DUP10 DUP6 DUP2 DUP2 LT PUSH2 0x20C JUMPI PUSH2 0x20B PUSH2 0xBD5 JUMP JUMPDEST JUMPDEST SWAP1 POP PUSH1 0x40 MUL ADD DUP1 CALLDATASIZE SUB DUP2 ADD SWAP1 PUSH2 0x222 SWAP2 SWAP1 PUSH2 0xC02 JUMP JUMPDEST DUP14 DUP14 DUP6 DUP2 DUP2 LT PUSH2 0x235 JUMPI PUSH2 0x234 PUSH2 0xBD5 JUMP JUMPDEST JUMPDEST SWAP1 POP PUSH1 0x20 MUL ADD CALLDATALOAD PUSH2 0x29A JUMP JUMPDEST SWAP1 POP PUSH2 0x24D DUP5 DUP3 PUSH2 0x3B6 JUMP JUMPDEST SWAP4 POP POP POP DUP1 DUP1 PUSH1 0x1 ADD SWAP2 POP POP PUSH2 0x1D3 JUMP JUMPDEST POP DUP1 DUP4 DUP4 DUP2 MLOAD DUP2 LT PUSH2 0x273 JUMPI PUSH2 0x272 PUSH2 0xBD5 JUMP JUMPDEST JUMPDEST PUSH1 0x20 MUL PUSH1 0x20 ADD ADD DUP2 SWAP1 MSTORE POP POP DUP1 DUP1 PUSH1 0x1 ADD SWAP2 POP POP PUSH2 0x16C JUMP JUMPDEST POP DUP1 SWAP2 POP POP SWAP6 SWAP5 POP POP POP POP POP JUMP JUMPDEST PUSH2 0x2A2 PUSH2 0x69C JUMP JUMPDEST PUSH0 DUP4 PUSH0 ADD MLOAD DUP5 PUSH1 0x20 ADD MLOAD DUP5 PUSH1 0x40 MLOAD PUSH1 0x20 ADD PUSH2 0x2BF SWAP4 SWAP3 SWAP2 SWAP1 PUSH2 0xCDD JUMP JUMPDEST PUSH1 0x40 MLOAD PUSH1 0x20 DUP2 DUP4 SUB SUB DUP2 MSTORE SWAP1 PUSH1 0x40 MSTORE SWAP1 POP PUSH0 DUP1 PUSH1 0x7 PUSH20 0xFFFFFFFFFFFFFFFFFFFFFFFFFFFFFFFFFFFFFFFF AND DUP4 PUSH1 0x40 MLOAD PUSH2 0x2F8 SWAP2 SWAP1 PUSH2 0xD64 JUMP JUMPDEST PUSH0 PUSH1 0x40 MLOAD DUP1 DUP4 SUB DUP2 DUP6 GAS STATICCALL SWAP2 POP POP RETURNDATASIZE DUP1 PUSH0 DUP2 EQ PUSH2 0x330 JUMPI PUSH1 0x40 MLOAD SWAP2 POP PUSH1 0x1F NOT PUSH1 0x3F RETURNDATASIZE ADD AND DUP3 ADD PUSH1 0x40 MSTORE RETURNDATASIZE DUP3 MSTORE RETURNDATASIZE PUSH0 PUSH1 0x20 DUP5 ADD RETURNDATACOPY PUSH2 0x335 JUMP JUMPDEST PUSH1 0x60 SWAP2 POP JUMPDEST POP SWAP2 POP SWAP2 POP DUP2 PUSH2 0x37A JUMPI PUSH1 0x40 MLOAD PUSH32 0x8C379A000000000000000000000000000000000000000000000000000000000 DUP2 MSTORE PUSH1 0x4 ADD PUSH2 0x371 SWAP1 PUSH2 0xDD4 JUMP JUMPDEST PUSH1 0x40 MLOAD DUP1 SWAP2 SUB SWAP1 REVERT JUMPDEST PUSH0 DUP1 DUP3 DUP1 PUSH1 0x20 ADD SWAP1 MLOAD DUP2 ADD SWAP1 PUSH2 0x390 SWAP2 SWAP1 PUSH2 0xE06 JUMP JUMPDEST SWAP2 POP SWAP2 POP PUSH1 0x40 MLOAD DUP1 PUSH1 0x40 ADD PUSH1 0x40 MSTORE DUP1 DUP4 DUP2 MSTORE PUSH1 0x20 ADD DUP3 DUP2 MSTORE POP SWAP6 POP POP POP POP POP POP SWAP3 SWAP2 POP POP JUMP JUMPDEST PUSH2 0x3BE PUSH2 0x69C JUMP JUMPDEST PUSH0 DUP4 PUSH0 ADD MLOAD DUP5 PUSH1 0x20 ADD MLOAD DUP5 PUSH0 ADD MLOAD DUP6 PUSH1 0x20 ADD MLOAD PUSH1 0x40 MLOAD PUSH1 0x20 ADD PUSH2 0x3E4 SWAP5 SWAP4 SWAP3 SWAP2 SWAP1 PUSH2 0xE44 JUMP JUMPDEST PUSH1 0x40 MLOAD PUSH1 0x20 DUP2 DUP4 SUB SUB DUP2 MSTORE SWAP1 PUSH1 0x40 MSTORE SWAP1 POP PUSH0 DUP1 PUSH1 0x6 PUSH20 0xFFFFFFFFFFFFFFFFFFFFFFFFFFFFFFFFFFFFFFFF AND DUP4 PUSH1 0x40 MLOAD PUSH2 0x41D SWAP2 SWAP1 PUSH2 0xD64 JUMP JUMPDEST PUSH0 PUSH1 0x40 MLOAD DUP1 DUP4 SUB DUP2 DUP6 GAS STATICCALL SWAP2 POP POP RETURNDATASIZE DUP1 PUSH0 DUP2 EQ PUSH2 0x455 JUMPI PUSH1 0x40 MLOAD SWAP2 POP PUSH1 0x1F NOT PUSH1 0x3F RETURNDATASIZE ADD AND DUP3 ADD PUSH1 0x40 MSTORE RETURNDATASIZE DUP3 MSTORE RETURNDATASIZE PUSH0 PUSH1 0x20 DUP5 ADD RETURNDATACOPY PUSH2 0x45A JUMP JUMPDEST PUSH1 0x60 SWAP2 POP JUMPDEST POP SWAP2 POP SWAP2 POP DUP2 PUSH2 0x49F JUMPI PUSH1 0x40 MLOAD PUSH32 0x8C379A000000000000000000000000000000000000000000000000000000000 DUP2 MSTORE PUSH1 0x4 ADD PUSH2 0x496 SWAP1 PUSH2 0xED1 JUMP JUMPDEST PUSH1 0x40 MLOAD DUP1 SWAP2 SUB SWAP1 REVERT JUMPDEST PUSH0 DUP1 DUP3 DUP1 PUSH1 0x20 ADD SWAP1 MLOAD DUP2 ADD SWAP1 PUSH2 0x4B5 SWAP2 SWAP1 PUSH2 0xE06 JUMP JUMPDEST SWAP2 POP SWAP2 POP PUSH1 0x40 MLOAD DUP1 PUSH1 0x40 ADD PUSH1 0x40 MSTORE DUP1 DUP4 DUP2 MSTORE PUSH1 0x20 ADD DUP3 DUP2 MSTORE POP SWAP6 POP POP POP POP POP POP SWAP3 SWAP2 POP POP JUMP JUMPDEST PUSH0 DUP6 DUP7 PUSH2 0x4E8 SWAP2 SWAP1 PUSH2 0xC5A JUMP JUMPDEST DUP9 DUP9 SWAP1 POP EQ PUSH2 0x52C JUMPI PUSH1 0x40 MLOAD PUSH32 0x8C379A000000000000000000000000000000000000000000000000000000000 DUP2 MSTORE PUSH1 0x4 ADD PUSH2 0x523 SWAP1 PUSH2 0xF5F JUMP JUMPDEST PUSH1 0x40 MLOAD DUP1 SWAP2 SUB SWAP1 REVERT JUMPDEST DUP6 DUP6 DUP6 SWAP1 POP EQ PUSH2 0x571 JUMPI PUSH1 0x40 MLOAD PUSH32 0x8C379A000000000000000000000000000000000000000000000000000000000 DUP2 MSTORE PUSH1 0x4 ADD PUSH2 0x568 SWAP1 PUSH2 0xFED JUMP JUMPDEST PUSH1 0x40 MLOAD DUP1 SWAP2 SUB SWAP1 REVERT JUMPDEST PUSH0 PUSH1 0x40 MLOAD DUP1 PUSH1 0x40 ADD PUSH1 0x40 MSTORE DUP1 PUSH1 0x1 DUP2 MSTORE PUSH1 0x20 ADD PUSH1 0x2 DUP2 MSTORE POP SWAP1 POP PUSH0 PUSH2 0x599 DUP11 DUP11 DUP11 DUP11 DUP11 PUSH2 0x10E JUMP JUMPDEST SWAP1 POP PUSH0 JUMPDEST DUP9 DUP2 LT ISZERO PUSH2 0x68A JUMPI PUSH0 PUSH2 0x5C9 DUP5 DUP9 DUP9 DUP6 DUP2 DUP2 LT PUSH2 0x5BD JUMPI PUSH2 0x5BC PUSH2 0xBD5 JUMP JUMPDEST JUMPDEST SWAP1 POP PUSH1 0x20 MUL ADD CALLDATALOAD PUSH2 0x29A JUMP JUMPDEST SWAP1 POP DUP3 DUP3 DUP2 MLOAD DUP2 LT PUSH2 0x5DE JUMPI PUSH2 0x5DD PUSH2 0xBD5 JUMP JUMPDEST JUMPDEST PUSH1 0x20 MUL PUSH1 0x20 ADD ADD MLOAD PUSH0 ADD MLOAD DUP2 PUSH0 ADD MLOAD EQ ISZERO DUP1 PUSH2 0x61C JUMPI POP DUP3 DUP3 DUP2 MLOAD DUP2 LT PUSH2 0x608 JUMPI PUSH2 0x607 PUSH2 0xBD5 JUMP JUMPDEST JUMPDEST PUSH1 0x20 MUL PUSH1 0x20 ADD ADD MLOAD PUSH1 0x20 ADD MLOAD DUP2 PUSH1 0x20 ADD MLOAD EQ ISZERO JUMPDEST ISZERO PUSH2 0x67C JUMPI DUP1 DUP4 DUP4 DUP2 MLOAD DUP2 LT PUSH2 0x635 JUMPI PUSH2 0x634 PUSH2 0xBD5 JUMP JUMPDEST JUMPDEST PUSH1 0x20 MUL PUSH1 0x20 ADD ADD MLOAD DUP4 PUSH1 0x40 MLOAD PUSH32 0x9DA1B20F00000000000000000000000000000000000000000000000000000000 DUP2 MSTORE PUSH1 0x4 ADD PUSH2 0x673 SWAP4 SWAP3 SWAP2 SWAP1 PUSH2 0x100B JUMP JUMPDEST PUSH1 0x40 MLOAD DUP1 SWAP2 SUB SWAP1 REVERT JUMPDEST POP DUP1 DUP1 PUSH1 0x1 ADD SWAP2 POP POP PUSH2 0x59D JUMP JUMPDEST POP PUSH1 0x1 SWAP3 POP POP POP SWAP8 SWAP7 POP POP POP POP POP POP POP JUMP JUMPDEST PUSH1 0x40 MLOAD DUP1 PUSH1 0x40 ADD PUSH1 0x40 MSTORE DUP1 PUSH0 DUP2 MSTORE PUSH1 0x20 ADD PUSH0 DUP2 MSTORE POP SWAP1 JUMP JUMPDEST PUSH0 PUSH1 0x40 MLOAD SWAP1 POP SWAP1 JUMP JUMPDEST PUSH0 DUP1 REVERT JUMPDEST PUSH0 DUP1 REVERT JUMPDEST PUSH0 DUP1 REVERT JUMPDEST PUSH0 DUP1 REVERT JUMPDEST PUSH0 DUP1 REVERT JUMPDEST PUSH0 DUP1 DUP4 PUSH1 0x1F DUP5 ADD SLT PUSH2 0x6E6 JUMPI PUSH2 0x6E5 PUSH2 0x6C5 JUMP JUMPDEST JUMPDEST DUP3 CALLDATALOAD SWAP1 POP PUSH8 0xFFFFFFFFFFFFFFFF DUP2 GT ISZERO PUSH2 0x703 JUMPI PUSH2 0x702 PUSH2 0x6C9 JUMP JUMPDEST JUMPDEST PUSH1 0x20 DUP4 ADD SWAP2 POP DUP4 PUSH1 0x20 DUP3 MUL DUP4 ADD GT ISZERO PUSH2 0x71F JUMPI PUSH2 0x71E PUSH2 0x6CD JUMP JUMPDEST JUMPDEST SWAP3 POP SWAP3 SWAP1 POP JUMP JUMPDEST PUSH0 DUP2 SWAP1 POP SWAP2 SWAP1 POP JUMP JUMPDEST PUSH2 0x738 DUP2 PUSH2 0x726 JUMP JUMPDEST DUP2 EQ PUSH2 0x742 JUMPI PUSH0 DUP1 REVERT JUMPDEST POP JUMP JUMPDEST PUSH0 DUP2 CALLDATALOAD SWAP1 POP PUSH2 0x753 DUP2 PUSH2 0x72F JUMP JUMPDEST SWAP3 SWAP2 POP POP JUMP JUMPDEST PUSH0 DUP1 DUP4 PUSH1 0x1F DUP5 ADD SLT PUSH2 0x76E JUMPI PUSH2 0x76D PUSH2 0x6C5 JUMP JUMPDEST JUMPDEST DUP3 CALLDATALOAD SWAP1 POP PUSH8 0xFFFFFFFFFFFFFFFF DUP2 GT ISZERO PUSH2 0x78B JUMPI PUSH2 0x78A PUSH2 0x6C9 JUMP JUMPDEST JUMPDEST PUSH1 0x20 DUP4 ADD SWAP2 POP DUP4 PUSH1 0x40 DUP3 MUL DUP4 ADD GT ISZERO PUSH2 0x7A7 JUMPI PUSH2 0x7A6 PUSH2 0x6CD JUMP JUMPDEST JUMPDEST SWAP3 POP SWAP3 SWAP1 POP JUMP JUMPDEST PUSH0 DUP1 PUSH0 DUP1 PUSH0 PUSH1 0x60 DUP7 DUP9 SUB SLT ISZERO PUSH2 0x7C7 JUMPI PUSH2 0x7C6 PUSH2 0x6BD JUMP JUMPDEST JUMPDEST PUSH0 DUP7 ADD CALLDATALOAD PUSH8 0xFFFFFFFFFFFFFFFF DUP2 GT ISZERO PUSH2 0x7E4 JUMPI PUSH2 0x7E3 PUSH2 0x6C1 JUMP JUMPDEST JUMPDEST PUSH2 0x7F0 DUP9 DUP3 DUP10 ADD PUSH2 0x6D1 JUMP JUMPDEST SWAP6 POP SWAP6 POP POP PUSH1 0x20 PUSH2 0x803 DUP9 DUP3 DUP10 ADD PUSH2 0x745 JUMP JUMPDEST SWAP4 POP POP PUSH1 0x40 DUP7 ADD CALLDATALOAD PUSH8 0xFFFFFFFFFFFFFFFF DUP2 GT ISZERO PUSH2 0x824 JUMPI PUSH2 0x823 PUSH2 0x6C1 JUMP JUMPDEST JUMPDEST PUSH2 0x830 DUP9 DUP3 DUP10 ADD PUSH2 0x759 JUMP JUMPDEST SWAP3 POP SWAP3 POP POP SWAP3 SWAP6 POP SWAP3 SWAP6 SWAP1 SWAP4 POP JUMP JUMPDEST PUSH0 DUP2 MLOAD SWAP1 POP SWAP2 SWAP1 POP JUMP JUMPDEST PUSH0 DUP3 DUP3 MSTORE PUSH1 0x20 DUP3 ADD SWAP1 POP SWAP3 SWAP2 POP POP JUMP JUMPDEST PUSH0 DUP2 SWAP1 POP PUSH1 0x20 DUP3 ADD SWAP1 POP SWAP2 SWAP1 POP JUMP JUMPDEST PUSH2 0x871 DUP2 PUSH2 0x726 JUMP JUMPDEST DUP3 MSTORE POP POP JUMP JUMPDEST PUSH1 0x40 DUP3 ADD PUSH0 DUP3 ADD MLOAD PUSH2 0x88B PUSH0 DUP6 ADD DUP3 PUSH2 0x868 JUMP JUMPDEST POP PUSH1 0x20 DUP3 ADD MLOAD PUSH2 0x89E PUSH1 0x20 DUP6 ADD DUP3 PUSH2 0x868 JUMP JUMPDEST POP POP POP POP JUMP JUMPDEST PUSH0 PUSH2 0x8AF DUP4 DUP4 PUSH2 0x877 JUMP JUMPDEST PUSH1 0x40 DUP4 ADD SWAP1 POP SWAP3 SWAP2 POP POP JUMP JUMPDEST PUSH0 PUSH1 0x20 DUP3 ADD SWAP1 POP SWAP2 SWAP1 POP JUMP JUMPDEST PUSH0 PUSH2 0x8D1 DUP3 PUSH2 0x83F JUMP JUMPDEST PUSH2 0x8DB DUP2 DUP6 PUSH2 0x849 JUMP JUMPDEST SWAP4 POP PUSH2 0x8E6 DUP4 PUSH2 0x859 JUMP JUMPDEST DUP1 PUSH0 JUMPDEST DUP4 DUP2 LT ISZERO PUSH2 0x916 JUMPI DUP2 MLOAD PUSH2 0x8FD DUP9 DUP3 PUSH2 0x8A4 JUMP JUMPDEST SWAP8 POP PUSH2 0x908 DUP4 PUSH2 0x8BB JUMP JUMPDEST SWAP3 POP POP PUSH1 0x1 DUP2 ADD SWAP1 POP PUSH2 0x8E9 JUMP JUMPDEST POP DUP6 SWAP4 POP POP POP POP SWAP3 SWAP2 POP POP JUMP JUMPDEST PUSH0 PUSH1 0x20 DUP3 ADD SWAP1 POP DUP2 DUP2 SUB PUSH0 DUP4 ADD MSTORE PUSH2 0x93B DUP2 DUP5 PUSH2 0x8C7 JUMP JUMPDEST SWAP1 POP SWAP3 SWAP2 POP POP JUMP JUMPDEST PUSH0 DUP1 REVERT JUMPDEST PUSH0 PUSH1 0x1F NOT PUSH1 0x1F DUP4 ADD AND SWAP1 POP SWAP2 SWAP1 POP JUMP JUMPDEST PUSH32 0x4E487B7100000000000000000000000000000000000000000000000000000000 PUSH0 MSTORE PUSH1 0x41 PUSH1 0x4 MSTORE PUSH1 0x24 PUSH0 REVERT JUMPDEST PUSH2 0x98D DUP3 PUSH2 0x947 JUMP JUMPDEST DUP2 ADD DUP2 DUP2 LT PUSH8 0xFFFFFFFFFFFFFFFF DUP3 GT OR ISZERO PUSH2 0x9AC JUMPI PUSH2 0x9AB PUSH2 0x957 JUMP JUMPDEST JUMPDEST DUP1 PUSH1 0x40 MSTORE POP POP POP JUMP JUMPDEST PUSH0 PUSH2 0x9BE PUSH2 0x6B4 JUMP JUMPDEST SWAP1 POP PUSH2 0x9CA DUP3 DUP3 PUSH2 0x984 JUMP JUMPDEST SWAP2 SWAP1 POP JUMP JUMPDEST PUSH0 PUSH1 0x40 DUP3 DUP5 SUB SLT ISZERO PUSH2 0x9E4 JUMPI PUSH2 0x9E3 PUSH2 0x943 JUMP JUMPDEST JUMPDEST PUSH2 0x9EE PUSH1 0x40 PUSH2 0x9B5 JUMP JUMPDEST SWAP1 POP PUSH0 PUSH2 0x9FD DUP5 DUP3 DUP6 ADD PUSH2 0x745 JUMP JUMPDEST PUSH0 DUP4 ADD MSTORE POP PUSH1 0x20 PUSH2 0xA10 DUP5 DUP3 DUP6 ADD PUSH2 0x745 JUMP JUMPDEST PUSH1 0x20 DUP4 ADD MSTORE POP SWAP3 SWAP2 POP POP JUMP JUMPDEST PUSH0 DUP1 PUSH1 0x60 DUP4 DUP6 SUB SLT ISZERO PUSH2 0xA32 JUMPI PUSH2 0xA31 PUSH2 0x6BD JUMP JUMPDEST JUMPDEST PUSH0 PUSH2 0xA3F DUP6 DUP3 DUP7 ADD PUSH2 0x9CF JUMP JUMPDEST SWAP3 POP POP PUSH1 0x40 PUSH2 0xA50 DUP6 DUP3 DUP7 ADD PUSH2 0x745 JUMP JUMPDEST SWAP2 POP POP SWAP3 POP SWAP3 SWAP1 POP JUMP JUMPDEST PUSH1 0x40 DUP3 ADD PUSH0 DUP3 ADD MLOAD PUSH2 0xA6E PUSH0 DUP6 ADD DUP3 PUSH2 0x868 JUMP JUMPDEST POP PUSH1 0x20 DUP3 ADD MLOAD PUSH2 0xA81 PUSH1 0x20 DUP6 ADD DUP3 PUSH2 0x868 JUMP JUMPDEST POP POP POP POP JUMP JUMPDEST PUSH0 PUSH1 0x40 DUP3 ADD SWAP1 POP PUSH2 0xA9A PUSH0 DUP4 ADD DUP5 PUSH2 0xA5A JUMP JUMPDEST SWAP3 SWAP2 POP POP JUMP JUMPDEST PUSH0 DUP1 PUSH1 0x80 DUP4 DUP6 SUB SLT ISZERO PUSH2 0xAB6 JUMPI PUSH2 0xAB5 PUSH2 0x6BD JUMP JUMPDEST JUMPDEST PUSH0 PUSH2 0xAC3 DUP6 DUP3 DUP7 ADD PUSH2 0x9CF JUMP JUMPDEST SWAP3 POP POP PUSH1 0x40 PUSH2 0xAD4 DUP6 DUP3 DUP7 ADD PUSH2 0x9CF JUMP JUMPDEST SWAP2 POP POP SWAP3 POP SWAP3 SWAP1 POP JUMP JUMPDEST PUSH0 DUP1 PUSH0 DUP1 PUSH0 DUP1 PUSH0 PUSH1 0x80 DUP9 DUP11 SUB SLT ISZERO PUSH2 0xAF9 JUMPI PUSH2 0xAF8 PUSH2 0x6BD JUMP JUMPDEST JUMPDEST PUSH0 DUP9 ADD CALLDATALOAD PUSH8 0xFFFFFFFFFFFFFFFF DUP2 GT ISZERO PUSH2 0xB16 JUMPI PUSH2 0xB15 PUSH2 0x6C1 JUMP JUMPDEST JUMPDEST PUSH2 0xB22 DUP11 DUP3 DUP12 ADD PUSH2 0x6D1 JUMP JUMPDEST SWAP8 POP SWAP8 POP POP PUSH1 0x20 PUSH2 0xB35 DUP11 DUP3 DUP12 ADD PUSH2 0x745 JUMP JUMPDEST SWAP6 POP POP PUSH1 0x40 DUP9 ADD CALLDATALOAD PUSH8 0xFFFFFFFFFFFFFFFF DUP2 GT ISZERO PUSH2 0xB56 JUMPI PUSH2 0xB55 PUSH2 0x6C1 JUMP JUMPDEST JUMPDEST PUSH2 0xB62 DUP11 DUP3 DUP12 ADD PUSH2 0x759 JUMP JUMPDEST SWAP5 POP SWAP5 POP POP PUSH1 0x60 DUP9 ADD CALLDATALOAD PUSH8 0xFFFFFFFFFFFFFFFF DUP2 GT ISZERO PUSH2 0xB85 JUMPI PUSH2 0xB84 PUSH2 0x6C1 JUMP JUMPDEST JUMPDEST PUSH2 0xB91 DUP11 DUP3 DUP12 ADD PUSH2 0x6D1 JUMP JUMPDEST SWAP3 POP SWAP3 POP POP SWAP3 SWAP6 SWAP9 SWAP2 SWAP5 SWAP8 POP SWAP3 SWAP6 POP JUMP JUMPDEST PUSH0 DUP2 ISZERO ISZERO SWAP1 POP SWAP2 SWAP1 POP JUMP JUMPDEST PUSH2 0xBB6 DUP2 PUSH2 0xBA2 JUMP JUMPDEST DUP3 MSTORE POP POP JUMP JUMPDEST PUSH0 PUSH1 0x20 DUP3 ADD SWAP1 POP PUSH2 0xBCF PUSH0 DUP4 ADD DUP5 PUSH2 0xBAD JUMP JUMPDEST SWAP3 SWAP2 POP POP JUMP JUMPDEST PUSH32 0x4E487B7100000000000000000000000000000000000000000000000000000000 PUSH0 MSTORE PUSH1 0x32 PUSH1 0x4 MSTORE PUSH1 0x24 PUSH0 REVERT JUMPDEST PUSH0 PUSH1 0x40 DUP3 DUP5 SUB SLT ISZERO PUSH2 0xC17 JUMPI PUSH2 0xC16 PUSH2 0x6BD JUMP JUMPDEST JUMPDEST PUSH0 PUSH2 0xC24 DUP5 DUP3 DUP6 ADD PUSH2 0x9CF JUMP JUMPDEST SWAP2 POP POP SWAP3 SWAP2 POP POP JUMP JUMPDEST PUSH32 0x4E487B7100000000000000000000000000000000000000000000000000000000 PUSH0 MSTORE PUSH1 0x11 PUSH1 0x4 MSTORE PUSH1 0x24 PUSH0 REVERT JUMPDEST PUSH0 PUSH2 0xC64 DUP3 PUSH2 0x726 JUMP JUMPDEST SWAP2 POP PUSH2 0xC6F DUP4 PUSH2 0x726 JUMP JUMPDEST SWAP3 POP DUP3 DUP3 MUL PUSH2 0xC7D DUP2 PUSH2 0x726 JUMP JUMPDEST SWAP2 POP DUP3 DUP3 DIV DUP5 EQ DUP4 ISZERO OR PUSH2 0xC94 JUMPI PUSH2 0xC93 PUSH2 0xC2D JUMP JUMPDEST JUMPDEST POP SWAP3 SWAP2 POP POP JUMP JUMPDEST PUSH0 PUSH2 0xCA5 DUP3 PUSH2 0x726 JUMP JUMPDEST SWAP2 POP PUSH2 0xCB0 DUP4 PUSH2 0x726 JUMP JUMPDEST SWAP3 POP DUP3 DUP3 ADD SWAP1 POP DUP1 DUP3 GT ISZERO PUSH2 0xCC8 JUMPI PUSH2 0xCC7 PUSH2 0xC2D JUMP JUMPDEST JUMPDEST SWAP3 SWAP2 POP POP JUMP JUMPDEST PUSH2 0xCD7 DUP2 PUSH2 0x726 JUMP JUMPDEST DUP3 MSTORE POP POP JUMP JUMPDEST PUSH0 PUSH1 0x60 DUP3 ADD SWAP1 POP PUSH2 0xCF0 PUSH0 DUP4 ADD DUP7 PUSH2 0xCCE JUMP JUMPDEST PUSH2 0xCFD PUSH1 0x20 DUP4 ADD DUP6 PUSH2 0xCCE JUMP JUMPDEST PUSH2 0xD0A PUSH1 0x40 DUP4 ADD DUP5 PUSH2 0xCCE JUMP JUMPDEST SWAP5 SWAP4 POP POP POP POP JUMP JUMPDEST PUSH0 DUP2 MLOAD SWAP1 POP SWAP2 SWAP1 POP JUMP JUMPDEST PUSH0 DUP2 SWAP1 POP SWAP3 SWAP2 POP POP JUMP JUMPDEST DUP3 DUP2 DUP4 MCOPY PUSH0 DUP4 DUP4 ADD MSTORE POP POP POP JUMP JUMPDEST PUSH0 PUSH2 0xD3E DUP3 PUSH2 0xD12 JUMP JUMPDEST PUSH2 0xD48 DUP2 DUP6 PUSH2 0xD1C JUMP JUMPDEST SWAP4 POP PUSH2 0xD58 DUP2 DUP6 PUSH1 0x20 DUP7 ADD PUSH2 0xD26 JUMP JUMPDEST DUP1 DUP5 ADD SWAP2 POP POP SWAP3 SWAP2 POP POP JUMP JUMPDEST PUSH0 PUSH2 0xD6F DUP3 DUP5 PUSH2 0xD34 JUMP JUMPDEST SWAP2 POP DUP2 SWAP1 POP SWAP3 SWAP2 POP POP JUMP JUMPDEST PUSH0 DUP3 DUP3 MSTORE PUSH1 0x20 DUP3 ADD SWAP1 POP SWAP3 SWAP2 POP POP JUMP JUMPDEST PUSH32 0x7363616C654731206661696C6564000000000000000000000000000000000000 PUSH0 DUP3 ADD MSTORE POP JUMP JUMPDEST PUSH0 PUSH2 0xDBE PUSH1 0xE DUP4 PUSH2 0xD7A JUMP JUMPDEST SWAP2 POP PUSH2 0xDC9 DUP3 PUSH2 0xD8A JUMP JUMPDEST PUSH1 0x20 DUP3 ADD SWAP1 POP SWAP2 SWAP1 POP JUMP JUMPDEST PUSH0 PUSH1 0x20 DUP3 ADD SWAP1 POP DUP2 DUP2 SUB PUSH0 DUP4 ADD MSTORE PUSH2 0xDEB DUP2 PUSH2 0xDB2 JUMP JUMPDEST SWAP1 POP SWAP2 SWAP1 POP JUMP JUMPDEST PUSH0 DUP2 MLOAD SWAP1 POP PUSH2 0xE00 DUP2 PUSH2 0x72F JUMP JUMPDEST SWAP3 SWAP2 POP POP JUMP JUMPDEST PUSH0 DUP1 PUSH1 0x40 DUP4 DUP6 SUB SLT ISZERO PUSH2 0xE1C JUMPI PUSH2 0xE1B PUSH2 0x6BD JUMP JUMPDEST JUMPDEST PUSH0 PUSH2 0xE29 DUP6 DUP3 DUP7 ADD PUSH2 0xDF2 JUMP JUMPDEST SWAP3 POP POP PUSH1 0x20 PUSH2 0xE3A DUP6 DUP3 DUP7 ADD PUSH2 0xDF2 JUMP JUMPDEST SWAP2 POP POP SWAP3 POP SWAP3 SWAP1 POP JUMP JUMPDEST PUSH0 PUSH1 0x80 DUP3 ADD SWAP1 POP PUSH2 0xE57 PUSH0 DUP4 ADD DUP8 PUSH2 0xCCE JUMP JUMPDEST PUSH2 0xE64 PUSH1 0x20 DUP4 ADD DUP7 PUSH2 0xCCE JUMP JUMPDEST PUSH2 0xE71 PUSH1 0x40 DUP4 ADD DUP6 PUSH2 0xCCE JUMP JUMPDEST PUSH2 0xE7E PUSH1 0x60 DUP4 ADD DUP5 PUSH2 0xCCE JUMP JUMPDEST SWAP6 SWAP5 POP POP POP POP POP JUMP JUMPDEST PUSH32 0x616464506F696E7473206661696C656400000000000000000000000000000000 PUSH0 DUP3 ADD MSTORE POP JUMP JUMPDEST PUSH0 PUSH2 0xEBB PUSH1 0x10 DUP4 PUSH2 0xD7A JUMP JUMPDEST SWAP2 POP PUSH2 0xEC6 DUP3 PUSH2 0xE87 JUMP JUMPDEST PUSH1 0x20 DUP3 ADD SWAP1 POP SWAP2 SWAP1 POP JUMP JUMPDEST PUSH0 PUSH1 0x20 DUP3 ADD SWAP1 POP DUP2 DUP2 SUB PUSH0 DUP4 ADD MSTORE PUSH2 0xEE8 DUP2 PUSH2 0xEAF JUMP JUMPDEST SWAP1 POP SWAP2 SWAP1 POP JUMP JUMPDEST PUSH32 0x53697A6520706172616D6574657220646F6573206E6F7420636F72726573706F PUSH0 DUP3 ADD MSTORE PUSH32 0x6E6420746F206D6174726978206C656E67746800000000000000000000000000 PUSH1 0x20 DUP3 ADD MSTORE POP JUMP JUMPDEST PUSH0 PUSH2 0xF49 PUSH1 0x33 DUP4 PUSH2 0xD7A JUMP JUMPDEST SWAP2 POP PUSH2 0xF54 DUP3 PUSH2 0xEEF JUMP JUMPDEST PUSH1 0x40 DUP3 ADD SWAP1 POP SWAP2 SWAP1 POP JUMP JUMPDEST PUSH0 PUSH1 0x20 DUP3 ADD SWAP1 POP DUP2 DUP2 SUB PUSH0 DUP4 ADD MSTORE PUSH2 0xF76 DUP2 PUSH2 0xF3D JUMP JUMPDEST SWAP1 POP SWAP2 SWAP1 POP JUMP JUMPDEST PUSH32 0x53697A6520706172616D6574657220646F6573206E6F7420636F72726573706F PUSH0 DUP3 ADD MSTORE PUSH32 0x6E6420746F20766563746F72206C656E67746800000000000000000000000000 PUSH1 0x20 DUP3 ADD MSTORE POP JUMP JUMPDEST PUSH0 PUSH2 0xFD7 PUSH1 0x33 DUP4 PUSH2 0xD7A JUMP JUMPDEST SWAP2 POP PUSH2 0xFE2 DUP3 PUSH2 0xF7D JUMP JUMPDEST PUSH1 0x40 DUP3 ADD SWAP1 POP SWAP2 SWAP1 POP JUMP JUMPDEST PUSH0 PUSH1 0x20 DUP3 ADD SWAP1 POP DUP2 DUP2 SUB PUSH0 DUP4 ADD MSTORE PUSH2 0x1004 DUP2 PUSH2 0xFCB JUMP JUMPDEST SWAP1 POP SWAP2 SWAP1 POP JUMP JUMPDEST PUSH0 PUSH1 0xA0 DUP3 ADD SWAP1 POP PUSH2 0x101E PUSH0 DUP4 ADD DUP7 PUSH2 0xA5A JUMP JUMPDEST PUSH2 0x102B PUSH1 0x40 DUP4 ADD DUP6 PUSH2 0xA5A JUMP JUMPDEST PUSH2 0x1038 PUSH1 0x80 DUP4 ADD DUP5 PUSH2 0xCCE JUMP JUMPDEST SWAP5 SWAP4 POP POP POP POP JUMP INVALID LOG2 PUSH5 0x6970667358 0x22 SLT KECCAK256 0xCE 0xC9 JUMPI 0x23 RETURN 0xA8 INVALID 0xBB 0xB4 SWAP14 0xCC PUSH10 0x39558AEC4AADB41F2F06 SWAP1 SWAP12 MSTORE8 SWAP1 PUSH14 0xC1FF864B1C64736F6C634300081A STOP CALLER "
		},
		"gasEstimates": {
			"creation": {
				"codeDepositCost": "842800",
				"executionCost": "875",
				"totalCost": "843675"
			},
			"external": {
				"addPoints((uint256,uint256),(uint256,uint256))": "infinite",
				"matmul(uint256[],uint256,(uint256,uint256)[])": "infinite",
				"matmulver(uint256[],uint256,(uint256,uint256)[],uint256[])": "infinite",
				"scalePoint((uint256,uint256),uint256)": "infinite"
			}
		},
		"methodIdentifiers": {
			"addPoints((uint256,uint256),(uint256,uint256))": "e8b0ecde",
			"matmul(uint256[],uint256,(uint256,uint256)[])": "2da1ffb5",
			"matmulver(uint256[],uint256,(uint256,uint256)[],uint256[])": "f95f9907",
			"scalePoint((uint256,uint256),uint256)": "54086d42"
		}
	},
	"abi": [
		{
			"inputs": [
				{
					"components": [
						{
							"internalType": "uint256",
							"name": "x",
							"type": "uint256"
						},
						{
							"internalType": "uint256",
							"name": "y",
							"type": "uint256"
						}
					],
					"internalType": "struct HW5_2.ECPoint",
					"name": "p",
					"type": "tuple"
				},
				{
					"components": [
						{
							"internalType": "uint256",
							"name": "x",
							"type": "uint256"
						},
						{
							"internalType": "uint256",
							"name": "y",
							"type": "uint256"
						}
					],
					"internalType": "struct HW5_2.ECPoint",
					"name": "mi",
					"type": "tuple"
				},
				{
					"internalType": "uint256",
					"name": "i",
					"type": "uint256"
				}
			],
			"name": "LogError",
			"type": "error"
		},
		{
			"inputs": [
				{
					"components": [
						{
							"internalType": "uint256",
							"name": "x",
							"type": "uint256"
						},
						{
							"internalType": "uint256",
							"name": "y",
							"type": "uint256"
						}
					],
					"internalType": "struct HW5_2.ECPoint",
					"name": "A",
					"type": "tuple"
				},
				{
					"components": [
						{
							"internalType": "uint256",
							"name": "x",
							"type": "uint256"
						},
						{
							"internalType": "uint256",
							"name": "y",
							"type": "uint256"
						}
					],
					"internalType": "struct HW5_2.ECPoint",
					"name": "B",
					"type": "tuple"
				}
			],
			"name": "addPoints",
			"outputs": [
				{
					"components": [
						{
							"internalType": "uint256",
							"name": "x",
							"type": "uint256"
						},
						{
							"internalType": "uint256",
							"name": "y",
							"type": "uint256"
						}
					],
					"internalType": "struct HW5_2.ECPoint",
					"name": "sum",
					"type": "tuple"
				}
			],
			"stateMutability": "view",
			"type": "function"
		},
		{
			"inputs": [
				{
					"internalType": "uint256[]",
					"name": "matrix",
					"type": "uint256[]"
				},
				{
					"internalType": "uint256",
					"name": "n",
					"type": "uint256"
				},
				{
					"components": [
						{
							"internalType": "uint256",
							"name": "x",
							"type": "uint256"
						},
						{
							"internalType": "uint256",
							"name": "y",
							"type": "uint256"
						}
					],
					"internalType": "struct HW5_2.ECPoint[]",
					"name": "s",
					"type": "tuple[]"
				}
			],
			"name": "matmul",
			"outputs": [
				{
					"components": [
						{
							"internalType": "uint256",
							"name": "x",
							"type": "uint256"
						},
						{
							"internalType": "uint256",
							"name": "y",
							"type": "uint256"
						}
					],
					"internalType": "struct HW5_2.ECPoint[]",
					"name": "mul",
					"type": "tuple[]"
				}
			],
			"stateMutability": "view",
			"type": "function"
		},
		{
			"inputs": [
				{
					"internalType": "uint256[]",
					"name": "matrix",
					"type": "uint256[]"
				},
				{
					"internalType": "uint256",
					"name": "n",
					"type": "uint256"
				},
				{
					"components": [
						{
							"internalType": "uint256",
							"name": "x",
							"type": "uint256"
						},
						{
							"internalType": "uint256",
							"name": "y",
							"type": "uint256"
						}
					],
					"internalType": "struct HW5_2.ECPoint[]",
					"name": "s",
					"type": "tuple[]"
				},
				{
					"internalType": "uint256[]",
					"name": "o",
					"type": "uint256[]"
				}
			],
			"name": "matmulver",
			"outputs": [
				{
					"internalType": "bool",
					"name": "verified",
					"type": "bool"
				}
			],
			"stateMutability": "view",
			"type": "function"
		},
		{
			"inputs": [
				{
					"components": [
						{
							"internalType": "uint256",
							"name": "x",
							"type": "uint256"
						},
						{
							"internalType": "uint256",
							"name": "y",
							"type": "uint256"
						}
					],
					"internalType": "struct HW5_2.ECPoint",
					"name": "P",
					"type": "tuple"
				},
				{
					"internalType": "uint256",
					"name": "s",
					"type": "uint256"
				}
			],
			"name": "scalePoint",
			"outputs": [
				{
					"components": [
						{
							"internalType": "uint256",
							"name": "x",
							"type": "uint256"
						},
						{
							"internalType": "uint256",
							"name": "y",
							"type": "uint256"
						}
					],
					"internalType": "struct HW5_2.ECPoint",
					"name": "product",
					"type": "tuple"
				}
			],
			"stateMutability": "view",
			"type": "function"
		}
	]
}